{
  "contractName": "League",
  "abi": [
    {
      "constant": true,
      "inputs": [],
      "name": "manager",
      "outputs": [
        {
          "name": "",
          "type": "address"
        }
      ],
      "payable": false,
      "stateMutability": "view",
      "type": "function"
    },
    {
      "constant": true,
      "inputs": [
        {
          "name": "",
          "type": "uint256"
        }
      ],
      "name": "competitions",
      "outputs": [
        {
          "name": "manager",
          "type": "address"
        },
        {
          "name": "complete",
          "type": "bool"
        },
        {
          "name": "prizeMoney",
          "type": "uint256"
        },
        {
          "name": "maxPlayers",
          "type": "uint256"
        }
      ],
      "payable": false,
      "stateMutability": "view",
      "type": "function"
    },
    {
      "inputs": [
        {
          "name": "creator",
          "type": "address"
        }
      ],
      "payable": false,
      "stateMutability": "nonpayable",
      "type": "constructor"
    },
    {
      "constant": false,
      "inputs": [
        {
          "name": "max",
          "type": "uint256"
        }
      ],
      "name": "createCompetition",
      "outputs": [],
      "payable": true,
      "stateMutability": "payable",
      "type": "function"
    },
    {
      "constant": false,
      "inputs": [
        {
          "name": "index",
          "type": "uint256"
        }
      ],
      "name": "joinCompetition",
      "outputs": [],
      "payable": false,
      "stateMutability": "nonpayable",
      "type": "function"
    },
    {
      "constant": false,
      "inputs": [
        {
          "name": "index",
          "type": "uint256"
        },
        {
          "name": "winner",
          "type": "address"
        }
      ],
      "name": "awardWinner",
      "outputs": [],
      "payable": false,
      "stateMutability": "nonpayable",
      "type": "function"
    },
    {
      "constant": true,
      "inputs": [],
      "name": "getCompetitionCount",
      "outputs": [
        {
          "name": "",
          "type": "uint256"
        }
      ],
      "payable": false,
      "stateMutability": "view",
      "type": "function"
    },
    {
      "constant": true,
      "inputs": [
        {
          "name": "index",
          "type": "uint256"
        }
      ],
      "name": "getCompetitionPlayers",
      "outputs": [
        {
          "name": "",
          "type": "address[]"
        }
      ],
      "payable": false,
      "stateMutability": "view",
      "type": "function"
    }
  ],
  "bytecode": "0x608060405234801561001057600080fd5b50604051602080610a078339810180604052602081101561003057600080fd5b8101908080519060200190929190505050806000806101000a81548173ffffffffffffffffffffffffffffffffffffffff021916908373ffffffffffffffffffffffffffffffffffffffff16021790555050610976806100916000396000f3fe608060405260043610610083576000357c0100000000000000000000000000000000000000000000000000000000900463ffffffff1680631095846f14610088578063481c6a75146100c357806371730b5f1461011a578063958bc07d146101755780639f6828d9146101a3578063a58804bd14610237578063eb1fa9fa146102c7575b600080fd5b34801561009457600080fd5b506100c1600480360360208110156100ab57600080fd5b81019080803590602001909291905050506102f2565b005b3480156100cf57600080fd5b506100d8610465565b604051808273ffffffffffffffffffffffffffffffffffffffff1673ffffffffffffffffffffffffffffffffffffffff16815260200191505060405180910390f35b34801561012657600080fd5b506101736004803603604081101561013d57600080fd5b8101908080359060200190929190803573ffffffffffffffffffffffffffffffffffffffff16906020019092919050505061048a565b005b6101a16004803603602081101561018b57600080fd5b81019080803590602001909291905050506105c6565b005b3480156101af57600080fd5b506101dc600480360360208110156101c657600080fd5b810190808035906020019092919050505061070e565b604051808573ffffffffffffffffffffffffffffffffffffffff1673ffffffffffffffffffffffffffffffffffffffff1681526020018415151515815260200183815260200182815260200194505050505060405180910390f35b34801561024357600080fd5b506102706004803603602081101561025a57600080fd5b810190808035906020019092919050505061077a565b6040518080602001828103825283818151815260200191508051906020019060200280838360005b838110156102b3578082015181840152602081019050610298565b505050509050019250505060405180910390f35b3480156102d357600080fd5b506102dc610828565b6040518082815260200191505060405180910390f35b60018181548110151561030157fe5b906000526020600020906005020160040160003373ffffffffffffffffffffffffffffffffffffffff1673ffffffffffffffffffffffffffffffffffffffff16815260200190815260200160002060009054906101000a900460ff1615151561036957600080fd5b6001808281548110151561037957fe5b906000526020600020906005020160040160003373ffffffffffffffffffffffffffffffffffffffff1673ffffffffffffffffffffffffffffffffffffffff16815260200190815260200160002060006101000a81548160ff0219169083151502179055506001818154811015156103ed57fe5b90600052602060002090600502016003013390806001815401808255809150509060018203906000526020600020016000909192909190916101000a81548173ffffffffffffffffffffffffffffffffffffffff021916908373ffffffffffffffffffffffffffffffffffffffff1602179055505050565b6000809054906101000a900473ffffffffffffffffffffffffffffffffffffffff1681565b6000809054906101000a900473ffffffffffffffffffffffffffffffffffffffff1673ffffffffffffffffffffffffffffffffffffffff163373ffffffffffffffffffffffffffffffffffffffff161415156104e557600080fd5b6001828154811015156104f457fe5b906000526020600020906005020160040160008273ffffffffffffffffffffffffffffffffffffffff1673ffffffffffffffffffffffffffffffffffffffff16815260200190815260200160002060009054906101000a900460ff16151561055b57600080fd5b8073ffffffffffffffffffffffffffffffffffffffff166108fc60018481548110151561058457fe5b9060005260206000209060050201600101549081150290604051600060405180830381858888f193505050501580156105c1573d6000803e3d6000fd5b505050565b6105ce610835565b60a0604051908101604052803373ffffffffffffffffffffffffffffffffffffffff168152602001600015158152602001348152602001838152602001600060405190808252806020026020018201604052801561063b5781602001602082028038833980820191505090505b5081525090506001819080600181540180825580915050906001820390600052602060002090600502016000909192909190915060008201518160000160006101000a81548173ffffffffffffffffffffffffffffffffffffffff021916908373ffffffffffffffffffffffffffffffffffffffff16021790555060208201518160000160146101000a81548160ff0219169083151502179055506040820151816001015560608201518160020155608082015181600301908051906020019061070692919061087d565b505050505050565b60018181548110151561071d57fe5b90600052602060002090600502016000915090508060000160009054906101000a900473ffffffffffffffffffffffffffffffffffffffff16908060000160149054906101000a900460ff16908060010154908060020154905084565b606060018281548110151561078b57fe5b906000526020600020906005020160030180548060200260200160405190810160405280929190818152602001828054801561081c57602002820191906000526020600020905b8160009054906101000a900473ffffffffffffffffffffffffffffffffffffffff1673ffffffffffffffffffffffffffffffffffffffff16815260200190600101908083116107d2575b50505050509050919050565b6000600180549050905090565b60a060405190810160405280600073ffffffffffffffffffffffffffffffffffffffff1681526020016000151581526020016000815260200160008152602001606081525090565b8280548282559060005260206000209081019282156108f6579160200282015b828111156108f55782518260006101000a81548173ffffffffffffffffffffffffffffffffffffffff021916908373ffffffffffffffffffffffffffffffffffffffff1602179055509160200191906001019061089d565b5b5090506109039190610907565b5090565b61094791905b8082111561094357600081816101000a81549073ffffffffffffffffffffffffffffffffffffffff02191690555060010161090d565b5090565b9056fea165627a7a72305820b3dc7140d2a030a67f8e7efe82aae1566b9de6617a3ec654155f6b6161dbdb440029",
  "source": "pragma solidity ^0.5.0;\n\n\ncontract League {\naddress public manager;\n    //restrictor\n    modifier restricted(){\n        require(msg.sender == manager);\n        _;\n    }\n    struct Competition{\n        address manager;\n        bool complete;\n        uint prizeMoney;\n        uint maxPlayers;\n        address [] players;\n        mapping(address=> bool) competitor;\n    }\n    \n    Competition[] public competitions;\n    \n    //constructor\n   constructor(address creator ) public{\n        manager = creator;\n        \n    }\n    //create Competition\n    function createCompetition(uint max) public payable{\n        \n        Competition memory newCompetition = Competition({\n            manager: msg.sender,\n            complete: false,\n            maxPlayers: max,\n            prizeMoney: msg.value,\n            players: new address[](0)// new address array\n         \n        });\n        \n        competitions.push(newCompetition);\n        \n    }\n    \n    //join competitions using competion inde\n    function joinCompetition(uint index) public{\n        //check if joining twice\n        require(!competitions[index].competitor[msg.sender]);\n        // add msg sender to competition\n        competitions[index].competitor[msg.sender]= true;\n        competitions[index].players.push(msg.sender);\n        \n    }\n    \n    //award winner using winner address\n    function awardWinner(uint index, address payable winner) public restricted{\n         //check if address is in competition\n        require(competitions[index].competitor[winner]);\n        // send winner the cash\n        winner.transfer(competitions[index].prizeMoney);\n        \n        \n    }\n    function getCompetitionCount() public view returns(uint){\n        return competitions.length;\n        \n    }\n    function getCompetitionPlayers(uint index) public view returns(address [] memory){\n        return competitions[index].players;\n        \n        \n    }\n}\n",
  "sourcePath": "C:\\Users\\Solution Science\\Google Drive\\work2\\projects\\ethereum-FCC\\contracts\\League.sol",
  "compiler": {
    "name": "solc",
    "version": "0.5.0+commit.1d4f565a.Emscripten.clang"
  },
  "schemaVersion": "3.0.1",
  "updatedAt": "2019-02-24T08:05:54.984Z",
  "devdoc": {
    "methods": {}
  },
  "userdoc": {
    "methods": {}
  }
}