{
  "contractName": "LeagueFactory",
  "abi": [
    {
      "constant": true,
      "inputs": [
        {
          "name": "",
          "type": "uint256"
        }
      ],
      "name": "deployedLeagues",
      "outputs": [
        {
          "name": "",
          "type": "address"
        }
      ],
      "payable": false,
      "stateMutability": "view",
      "type": "function"
    },
    {
      "inputs": [],
      "payable": false,
      "stateMutability": "nonpayable",
      "type": "constructor"
    },
    {
      "constant": false,
      "inputs": [],
      "name": "deployLeague",
      "outputs": [],
      "payable": false,
      "stateMutability": "nonpayable",
      "type": "function"
    },
    {
      "constant": true,
      "inputs": [],
      "name": "GetAllLeagues",
      "outputs": [
        {
          "name": "",
          "type": "address[]"
        }
      ],
      "payable": false,
      "stateMutability": "view",
      "type": "function"
    },
    {
      "constant": false,
      "inputs": [],
      "name": "deleteAllLeagues",
      "outputs": [],
      "payable": false,
      "stateMutability": "nonpayable",
      "type": "function"
    }
  ],
  "bytecode": "0x608060405234801561001057600080fd5b50610b31806100206000396000f3fe608060405260043610610062576000357c0100000000000000000000000000000000000000000000000000000000900463ffffffff16806324f688991461006757806339f82761146100d35780633eb1f5dd146100ea57806358cc52cf14610165575b600080fd5b34801561007357600080fd5b5061007c61017c565b6040518080602001828103825283818151815260200191508051906020019060200280838360005b838110156100bf5780820151818401526020810190506100a4565b505050509050019250505060405180910390f35b3480156100df57600080fd5b506100e861020a565b005b3480156100f657600080fd5b506101236004803603602081101561010d57600080fd5b81019080803590602001909291905050506102d3565b604051808273ffffffffffffffffffffffffffffffffffffffff1673ffffffffffffffffffffffffffffffffffffffff16815260200191505060405180910390f35b34801561017157600080fd5b5061017a610311565b005b6060600080548060200260200160405190810160405280929190818152602001828054801561020057602002820191906000526020600020905b8160009054906101000a900473ffffffffffffffffffffffffffffffffffffffff1673ffffffffffffffffffffffffffffffffffffffff16815260200190600101908083116101b6575b5050505050905090565b600033610215610330565b808273ffffffffffffffffffffffffffffffffffffffff1673ffffffffffffffffffffffffffffffffffffffff168152602001915050604051809103906000f080158015610267573d6000803e3d6000fd5b50905060008190806001815401808255809150509060018203906000526020600020016000909192909190916101000a81548173ffffffffffffffffffffffffffffffffffffffff021916908373ffffffffffffffffffffffffffffffffffffffff1602179055505050565b6000818154811015156102e257fe5b906000526020600020016000915054906101000a900473ffffffffffffffffffffffffffffffffffffffff1681565b60008061031e9190610340565b6000808054905014151561032e57fe5b565b60405161077f8061038783390190565b508054600082559060005260206000209081019061035e9190610361565b50565b61038391905b8082111561037f576000816000905550600101610367565b5090565b9056fe608060405234801561001057600080fd5b5060405160208061077f8339810180604052602081101561003057600080fd5b8101908080519060200190929190505050806000806101000a81548173ffffffffffffffffffffffffffffffffffffffff021916908373ffffffffffffffffffffffffffffffffffffffff160217905550506106ee806100916000396000f3fe608060405260043610610078576000357c0100000000000000000000000000000000000000000000000000000000900463ffffffff1680631095846f1461007d578063481c6a75146100b857806371730b5f1461010f578063958bc07d1461016a5780639f6828d914610198578063eb1fa9fa14610233575b600080fd5b34801561008957600080fd5b506100b6600480360360208110156100a057600080fd5b810190808035906020019092919050505061025e565b005b3480156100c457600080fd5b506100cd610394565b604051808273ffffffffffffffffffffffffffffffffffffffff1673ffffffffffffffffffffffffffffffffffffffff16815260200191505060405180910390f35b34801561011b57600080fd5b506101686004803603604081101561013257600080fd5b8101908080359060200190929190803573ffffffffffffffffffffffffffffffffffffffff1690602001909291905050506103b9565b005b6101966004803603602081101561018057600080fd5b81019080803590602001909291905050506104f5565b005b3480156101a457600080fd5b506101d1600480360360208110156101bb57600080fd5b81019080803590602001909291905050506105fb565b604051808673ffffffffffffffffffffffffffffffffffffffff1673ffffffffffffffffffffffffffffffffffffffff168152602001851515151581526020018481526020018381526020018281526020019550505050505060405180910390f35b34801561023f57600080fd5b5061024861066d565b6040518082815260200191505060405180910390f35b60018181548110151561026d57fe5b906000526020600020906005020160040160003373ffffffffffffffffffffffffffffffffffffffff1673ffffffffffffffffffffffffffffffffffffffff16815260200190815260200160002060009054906101000a900460ff161515156102d557600080fd5b600180828154811015156102e557fe5b906000526020600020906005020160040160003373ffffffffffffffffffffffffffffffffffffffff1673ffffffffffffffffffffffffffffffffffffffff16815260200190815260200160002060006101000a81548160ff0219169083151502179055506001808281548110151561035a57fe5b9060005260206000209060050201600301540160018281548110151561037c57fe5b90600052602060002090600502016003018190555050565b6000809054906101000a900473ffffffffffffffffffffffffffffffffffffffff1681565b6000809054906101000a900473ffffffffffffffffffffffffffffffffffffffff1673ffffffffffffffffffffffffffffffffffffffff163373ffffffffffffffffffffffffffffffffffffffff1614151561041457600080fd5b60018281548110151561042357fe5b906000526020600020906005020160040160008273ffffffffffffffffffffffffffffffffffffffff1673ffffffffffffffffffffffffffffffffffffffff16815260200190815260200160002060009054906101000a900460ff16151561048a57600080fd5b8073ffffffffffffffffffffffffffffffffffffffff166108fc6001848154811015156104b357fe5b9060005260206000209060050201600101549081150290604051600060405180830381858888f193505050501580156104f0573d6000803e3d6000fd5b505050565b6104fd61067a565b60a0604051908101604052803373ffffffffffffffffffffffffffffffffffffffff168152602001600015158152602001348152602001838152602001600081525090506001819080600181540180825580915050906001820390600052602060002090600502016000909192909190915060008201518160000160006101000a81548173ffffffffffffffffffffffffffffffffffffffff021916908373ffffffffffffffffffffffffffffffffffffffff16021790555060208201518160000160146101000a81548160ff0219169083151502179055506040820151816001015560608201518160020155608082015181600301555050505050565b60018181548110151561060a57fe5b90600052602060002090600502016000915090508060000160009054906101000a900473ffffffffffffffffffffffffffffffffffffffff16908060000160149054906101000a900460ff16908060010154908060020154908060030154905085565b6000600180549050905090565b60a060405190810160405280600073ffffffffffffffffffffffffffffffffffffffff168152602001600015158152602001600081526020016000815260200160008152509056fea165627a7a72305820537f4e4780c06330434b0e00f5e7aa0bc545640e0d01e047d17d5a36f4bab8b30029a165627a7a7230582045f19266b6a0ad5bee7310d95c1ee41c3cd1a8aae3baa81123bac6a1e5bd942d0029",
  "source": "pragma solidity ^0.5.0;\n\nimport \"./League.sol\";\n\ncontract LeagueFactory {\n   address[]  public  deployedLeagues;\n\n\n  function deployLeague() public{\n        address newLeague = address(new League(msg.sender));\n        deployedLeagues.push(newLeague);\n        \n    }\n    function GetAllLeagues() public view returns (address [] memory){\n        return deployedLeagues;\n    }\n    function deleteAllLeagues() public {\n         delete deployedLeagues;\n         assert(deployedLeagues.length == 0);\n    }\n       \n  constructor() public {\n  }\n}\n",
  "sourcePath": "C:/Users/Solution Science/Google Drive/work2/projects/ethereum-FCC/contracts/LeagueFactory.sol",
  "compiler": {
    "name": "solc",
    "version": "0.5.0+commit.1d4f565a.Emscripten.clang"
  },
  "schemaVersion": "3.0.1",
  "updatedAt": "2019-02-20T18:38:01.215Z",
  "devdoc": {
    "methods": {}
  },
  "userdoc": {
    "methods": {}
  }
}